:100000001CC036C035C034C033C032C031C030C06F
:100010002FC02EC02DC02CC02BC02AC029C0AE209E
:1000200000B0C8001040813FA1A6A83FA4D300D5CE
:10003000F0D922DA12DB208D14AF11241FBECFE5D8
:10004000D2E0DEBFCDBF10E0A0E6B0E0E4E8F5E02E
:1000500002C005900D92AA36B107D9F720E0AAE6B2
:10006000B0E001C01D92A437B207E1F7D6D188C233
:10007000C7CFC29AC09AC098C2980895C298C09833
:10008000C29AC09A089520E030E090E0AC01022EC0
:1000900001C0440F0A94EAF747FF02C0C09A01C0AA
:1000A000C098C29AC2982F5F3F4F2830310571F730
:1000B000C09AC29AC2980895DCDF88E7E4DF80E046
:1000C000E2CFDCCFCF93DF931F92CDB7DEB789832A
:1000D000F3DF8981D8DF0F90DF91CF91CFCFC9DFD8
:1000E00088E7D1DF80E4CFCFC9CF1F93CF93DF93D1
:1000F000B89ABA9ACEE1D0E01C2F145EFE0184912A
:10010000E1DF21961C13FACFDF91CF911F91089563
:100110001F93CF93DF931F92CDB7DEB7182F69835C
:10012000CBDF698180EB860FAEDF812F82958F70E8
:100130008061A9DF812F8F70A6DF0F90DF91CF91B3
:100140001F919CCFEF92FF920F931F93CF93DF935A
:10015000E82EF62E042F122F60E080E0D9DFBFDFFB
:10016000C0E0D1E08E2D8FDF8F2D8DDF802F8BDFD4
:10017000812F89DF2197B1F7DF91CF911F910F91E7
:10018000FF90EF907BCF262F482FDCCF282F482FD2
:10019000682FD8CFCF93DF931F92CDB7DEB7898377
:1001A0009EDF898170DF0F90DF91CF9167CFEF9253
:1001B000FF920F931F93CF93DF931F92CDB7DEB7BC
:1001C00089838DDF8981805290E066E070E0C7D13D
:1001D0008C01E12CF12C9701200F311FE0916C0074
:1001E000F0916D00E20FF31F84914DDF8FEFE81A5D
:1001F000F80A86E0E816F10471F70F90DF91CF91CD
:100200001F910F91FF90EF9039CFCF93DF93EC01C7
:100210008991882311F0CBDFFBCFDF91CF91089537
:10022000109273006EE670E0A3D090E082599F4F69
:10023000ECCF109273006EE670E09AD08EE690E0FC
:10024000E4CFAF92BF92DF92EF92FF920F931F9392
:10025000CF93DF93182F062F7A01D12CF701ED0DE4
:10026000F11DC081CC2309F440C0C052193710F0F1
:100270000F5F10E0602F812F4BDF31DFD0E084E093
:10028000CC0FDD1F8A95E1F7A12CB12CC5018C0F95
:100290009D1FE0916A00F0916B00E80FF91F8491B7
:1002A000F2DE8FEFA81AB80A88E0A816B10471F739
:1002B000E5DE61E0600F812F2BDF11DF5E0188E05A
:1002C000A80EB11C6096E0916A00F0916B00EA0DF7
:1002D000FB1D8491D8DE8FEFA81AB80AAC16BD06B4
:1002E00091F7CCDE185FD394B9CFDF91CF911F91F6
:1002F0000F91FF90EF90DF90BF90AF9008959F9285
:10030000AF92BF92CF92DF92EF92FF920F931F9323
:10031000CF93DF93E82EF62E942EC22E580110E0D4
:10032000D12CFC14C8F46F2D8E2DF2DED8DEC12F37
:10033000DD2D8E2D811B182F8C2F810F891538F400
:10034000F501EC0FFD1F84919EDE2196F5CF96DE20
:10035000F3941C2FDD2EE5CFDF91CF911F910F91EC
:10036000FF90EF90DF90CF90BF90AF909F90089557
:10037000CF93DF93CDB7DEB72A970FB6F894DEBFE1
:100380000FBECDBFAC018AE0E0E6F0E0DE011196E1
:1003900001900D928A95E1F7FE013196DB0120E094
:1003A00084E06191719190E04617570720F09F5FBC
:1003B000461B570BF9CF843039F4911104C0243017
:1003C00011F090EF01C0822F905D9D932F5F25303B
:1003D00041F72A960FB6F894DEBF0FBECDBFDF916E
:1003E000CF910895FC0120E08FE040E050E8E41751
:1003F000F50730F0E41BF50B8F3021F4822F02C09B
:1004000090E001C091E0905DDB019D93BD015695A8
:1004100047952F5F203159F70895F89480E886BDFD
:1004200016BC78942FEF89EF90E0215080409040E7
:10043000E1F700C0000059DE80E0A8DE2FEF81EE7A
:1004400094E0215080409040E1F700C0000060E05F
:1004500080E05EDEC0E0D0E08C2F9CDE2196C115EE
:1004600024E0D207C9F78FEF97E823E1815090404D
:100470002040E1F700C00000C8E0DFEFD6958D2FE7
:10048000809584DEC150D1F78FEF97E823E181504A
:1004900090402040E1F700C000008AEA77DE8FEF4D
:1004A00097E823E1815090402040E1F700C0000030
:1004B00060E08FEF68DE8FEF97E823E18150904096
:1004C0002040E1F700C000006AEA85E55CDE8FEFBE
:1004D00097E823E1815090402040E1F700C0000000
:1004E00023E343E36CEC8CEC2DDE8FEF97E823E104
:1004F000815090402040E1F700C0000023E04CE034
:1005000060E380EC1FDE8FEF97E823E1815090409D
:100510002040E1F700C000002CE043E060EC80E305
:1005200011DE8FEF97E823E1815090402040E1F702
:1005300000C000008FEF2ADE8FEF97E823E18150A3
:1005400090402040E1F700C000008FEF93ED20E3E2
:10055000815090402040E1F700C000006DCF0024A2
:10056000552704C0080E591F880F991F009729F0BE
:1005700076956795B8F37105B9F7802D952F089595
:04058000F894FFCF1D
:0A0584001027E80364000A000100DC
:00000001FF
