:1000000014C32EC32DC32CC32BC32AC329C328C397
:1000100027C326C325C324C323C322C321C300008F
:1000200000000000000000000000000000000000D0
:1000300000F8000000000000003330000000001055
:100040000C06100C0600000000000000000040C07C
:100050007840C0784000043F04043F04040000706E
:1000600088FC08300000001820FF211E0000F00866
:10007000F000E018000000211C031E211E0000F00B
:100080000888700000001E21232419272110101653
:100090000E00000000000000000000000000000052
:1000A00000E01804020000000007182040000002D1
:1000B0000418E00000000040201807000000404045
:1000C00080F0804040000202010F010202000000A7
:1000D00000F0000000000101011F0101010000000B
:1000E00000000000000080B0700000000000000070
:1000F00000000000000000010101010101010000F9
:10010000000000000000003030000000000000008F
:10011000000080601804006018060100000000E084
:1001200010080810E000000F102020100F00001031
:1001300010F8000000000020203F20200000007088
:100140000808088870000030282422213000003080
:100150000888884830000018202020110E00000078
:10016000C02010F8000000070424243F240000F8F9
:100170000888880808000019212020110E0000E0DE
:10018000108888180000000F112020110E00003880
:100190000808C83808000000003F00000000007098
:1001A000880808887000001C222121221C0000E021
:1001B00010080810E0000000312222110F0000009A
:1001C00000C0C0000000000000303000000000004F
:1001D00000800000000000008060000000000000BF
:1001E0008040201008000001020408102000404058
:1001F000404040404000040404040404040000089B
:10020000102040800000002010080402010000704F
:1002100048080808F0000000003036010000C03037
:10022000C828E810E0000718272423140B0000005A
:10023000C038E0000000203C23020227382008F8E4
:10024000888888700000203F202020110E00C030D8
:10025000080808083800071820202010080008F8AF
:1002600008080810E000203F202020100F0008F8A8
:100270008888E8081000203F20202320180008F874
:100280008888E8081000203F200003000000C030EC
:1002900008080838000007182020221E020008F86D
:1002A00008000008F808203F210101213F20000834
:1002B00008F8080800000020203F2020000000006F
:1002C0000808F8080800C08080807F00000008F857
:1002D00088C028180800203F20012638200008F890
:1002E000080000000000203F20202020300008F8F7
:1002F000F800F8F80800203F003F003F200008F811
:1003000030C00008F808203F200007183F00E01028
:1003100008080810E0000F10202020100F0008F837
:1003200008080808F000203F210101010000E0104A
:1003300008080810E0000F18242438504F0008F86F
:10034000888888887000203F2000030C30200070CF
:100350008808080838000038202121221C001808CD
:1003600008F8080818000000203F2000000008F8E6
:1003700008000008F808001F202020201F0008782F
:10038000880000C83808000007380E010000F8088F
:1003900000F80008F800033C0700073C03000818B9
:1003A00068808068180820302C03032C302008381F
:1003B000C800C83808000000203F200000001008D6
:1003C0000808C8380800203826212020180000001E
:1003D00000FE020202000000007F40404000000CCE
:1003E00030C000000000000000010638C00000021C
:1003F0000202FE000000004040407F0000000000BC
:1004000004020202040000000000000000000000DE
:1004100000000000000080808080808080800002DA
:1004200002040000000000000000000000000000C6
:100430008080808000000019242222223F2008F8BA
:10044000008080000000003F112020110E000000FD
:10045000008080800000000E11202020110000008C
:1004600000808088F800000E112020103F2000003E
:10047000808080800000001F222222221300008042
:1004800080F0888888180020203F2020000000008D
:10049000808080808000006B94949493600008F8C2
:1004A000008080800000203F210000203F2000804D
:1004B0009898000000000020203F2020000000004D
:1004C00000809898000000C08080807F000008F8BD
:1004D000000080808000203F24022D302000000892
:1004E00008F8000000000020203F2020000080804D
:1004F000808080808000203F20003F20003F80805F
:10050000008080800000203F210000203F2000006C
:10051000808080800000001F202020201F0080801D
:1005200000808000000080FFA12020110E0000004C
:10053000008080808000000E112020A0FF8080803D
:1005400080008080800020203F21200001000000EA
:1005500080808080800000332424242419000080BF
:1005600080E0808000000000001F202000008080CC
:10057000000000808000001F202020103F2080808D
:1005800080000080808000010E300806010080801D
:100590000080008080800F300C030C300F00008042
:1005A0008000808080000020312E0E31200080806D
:1005B00080000080808080818E701806010000809D
:1005C0008080808080000021302C222130000000BB
:1005D0000000807C020200000000003F404000005C
:1005E0000000FF00000000000000FF00000000020B
:1005F000027C800000000040403F00000000000638
:100600000101020204040000000000000000AE200E
:1006100000B0C8001040813FA1A6A81FA4D300D5F8
:10062000F0D922DA02DB208D14AF11241FBECFE5F2
:10063000D2E0DEBFCDBF10E0A0E6B0E0E2EDFBE02F
:1006400002C005900D92A639B107D9F720E0A6E9BE
:10065000B0E001C01D92A13AB207E1F78AD2B7C259
:10066000CFCC8EE190E090939700809396002FEF8F
:1006700089EF90E0215080409040E1F700C00000F9
:1006800039D080E082D030C2C29AC09AC098C29855
:100690000895C298C098C29AC09A089530E020E0A8
:1006A00090E0AC01022E01C0440F0A94EAF747FF24
:1006B0000CC0C09AC29AC2982F5F3F4F28303105B4
:1006C00081F7C09AC29AC2980895C098F3CFDCDF30
:1006D00088E7E4DF80E0E2CFDCCFCF93C82FF7DFFD
:1006E0008C2FDCDFCF91D5CFCFDF88E7D7DF80E459
:1006F000D5CFCFCFCF93DF93B89ABA9ACEE0D6E0DA
:10070000FE018491EADF2196F6E0CA32DF07C1F7E5
:10071000DF91CF910895B898BA980895CF93DF9359
:10072000C82FD62FD4DF80EB8D0FB8DF8C2F8295AA
:100730008F708061B3DF8C2F8F70B0DFDF91CF912E
:10074000A8CFEF92FF920F931F93CF93DF93E82EE2
:10075000F62E042F122F60E080E0E0DFC5DFC0E05E
:10076000D1E08E2D9BDF8F2D99DF802F97DF812F9A
:1007700095DF2197B1F7DF91CF911F910F91FF90F6
:10078000EF9087CF262F482FDCCF282F482F682FB8
:10079000D8CFCF93C82FA8DF8C2F80DFCF9179CF10
:1007A0000F931F93CF93DF93C82F9EDFC0528C2FE0
:1007B00090E066E070E0FAD18C01D0E0C0E0C801C2
:1007C0008C0F9D1FE0919800F0919900E80FF91FA0
:1007D000849164DF2196C630D10589F7DF91CF91EE
:1007E0001F910F9156CFCF93DF93EC018991811127
:1007F00003C0DF91CF910895D3DFF8CF10929F000F
:100800006AE970E0A0D090E086569F4FECCF10923E
:100810009F006AE970E097D08AE990E0E4CFBF9248
:10082000CF92DF92EF92FF920F931F93CF93DF93BC
:10083000182F062F7A01B12CF701EB0DF11DC081A5
:10084000C1110AC0DF91CF911F910F91FF90EF90DE
:10085000DF90CF90BF900895C052193710F00F5F0E
:1008600010E0602F812F5ADF3FDFD0E084E0CC0F13
:10087000DD1F8A95E1F7D12CC12CCE018C0D9D1D79
:10088000E0919600F0919700E80FF91F849106DF40
:100890008FEFC81AD80A88E0C816D10471F7F9DEBC
:1008A00061E0600F812F3ADF1FDF6E0188E0C80E24
:1008B000D11C6096E0919600F0919700EC0DFD1D23
:1008C0008491ECDE8FEFC81AD80ACC15DD0591F7BC
:1008D000E0DE185FB394B0CFAF92BF92CF92DF92B9
:1008E000EF92FF920F931F93CF93DF93E82EF62E94
:1008F000A42EB22E680110E000E0FB1458F0DF9146
:10090000CF911F910F91FF90EF90DF90CF90BF900C
:10091000AF9008956F2D8E2D01DFE6DEC12FD02F11
:100920008E2D811B182F8C2F810F8A1528F0B1DE98
:10093000F3941C2F0D2FE1CFF601EC0FFD1F8491D6
:10094000ADDE2196F0CFCF93DF93CDB7DEB72A97F8
:100950000FB6F894DEBF0FBECDBFAC018AE0E0E673
:10096000F0E0DE01119601900D928A95E1F7FE010B
:100970003196DB0120E084E06191719190E003C049
:100980009F5F461B570B46175707D0F7843029F453
:10099000911111C0243079F090EF905D9D932F5FFD
:1009A000253051F72A960FB6F894DEBF0FBECDBFA3
:1009B000DF91CF910895822FF0CFFC0120E08FE0EE
:1009C00040E050E890E0E417F50728F0E41BF50B51
:1009D0008F3059F091E0905DDB019D93BD015695FC
:1009E00047952F5F203171F70895822FF3CF8EB98D
:1009F0008BE29CE09A95F1F700C08DB99AE09A9548
:100A0000F1F700C08DB9769BF4CF8CE08A95F1F7B1
:100A100000C08FB10895EF92FF920F931F93CF9371
:100A2000DF93EC01162F1092A000C29AB29BFECF6A
:100A30008CE08A95F1F700C0B89ABA9AC0988AE01B
:100A40008A95F1F700C0C2988CE08A95F1F700C052
:100A5000C09A02E0FF24F394EE24EA948091A0006F
:100A60008130E1F08823A9F0823089F11150B1F78B
:100A7000C0988CE08A95F1F700C0BA98B29BFECF7F
:100A80008AE08A95F1F700C0B898B09BFECF81E06C
:100A900012C0888180FD16C0F092A000C298899192
:100AA0008FB980EFA4DFB8988EEFA1DF80FF0DC073
:100AB000C29AC09A80E0DF91CF911F910F91FF9071
:100AC000EF9008950093A000E9CFB89ACFCFB898DF
:100AD00080EF8DDF8993B89A113021F4EFB88EEF53
:100AE00086DFC4CF1FB8FBCF1F93CF93DF9300D017
:100AF00000D0CDB7DEB74AE650E070E060E090E0AD
:100B000080E08DDE10E819831A8289E18B838FE9FA
:100B10008C8364E0CE0101967EDF8FE19EE4019735
:100B2000F1F700C0000048E750E070E060E090E0BE
:100B300080E075DE198385E08A8380E18B831C82E7
:100B400064E0CE01019667DF8FE19EE40197F1F743
:100B500000C0000046E850E070E060E090E080E017
:100B60005EDE0F900F900F900F90DF91CF911F914D
:100B7000089500D000D000D0CDB7DEB772DD8E0171
:100B80000F5F1F4F86E0F80111928A95E9F7F12C6B
:100B9000E12CB801C701D7DEF394A80160E080E042
:100BA0003EDEA80162E080E03ADEF3CF0024552764
:100BB00004C0080E591F880F991F009729F07695D9
:100BC0006795B8F37105B9F7802D952F0895F894BE
:020BD000FFCF55
:100BD2001027E80364000A000100496E6974204985
:100BE2004E4120312F320000496E697420494E4136
:100BF20020322F320000494E495420434F4D504C71
:060C0200455445440000CA
:00000001FF
