:100000001CC436C435C434C433C432C431C430C44F
:100010002FC42EC42DC42CC42BC42AC429C4000050
:1000200000007C6C64606060600000000000000004
:1000300000000000000000000000000000000000C0
:1000400000F0F81818181818989898981818181890
:100050001818181818181818181898989898989820
:100060009898989898989898989898989898989810
:100070009898989898989898981818181818189800
:100080009898981818181818F00000000000000040
:100090000000000000000000000000000000000060
:1000A000000066666666666E7C000000000000E088
:1000B000F030303030303030303030303030303080
:1000C000303F3F00003C42810000000081423C0084
:1000D000000054AA54AA540000FFFF011D151D0181
:1000E00001011D151D0101011D151D0101011D1538
:1000F0001D0101011D151D0101FF00003C42810091
:1001000000000081423C0000FF00000000000000F1
:1001100000000000000000000000000000000000DF
:1001200000003C26063E66663A000000000000FF24
:10013000FF000000081C141C0000081C141C000018
:1001400000000000000000000101010100000000AB
:100150000000050A050A0500000F1F1017151710EB
:10016000101017151710101017151710101017155D
:100170001710101017151710101F000000000001B5
:100180000101010000000000FF000000000000006D
:10019000000000000000000000000000000000005F
:1001A00000003E62607E06467C000000000000FF0A
:1001B000FF00000082C745C7000082C745C7000096
:1001C000000000000000000000000000000000002F
:1001D00000A854AA55AA55AA55AA54A8000000AAD6
:1001E00055AA55AA55AA55AA55AA55AA55AA55AA17
:1001F00055AA55AA55AA55AA55AA00000000A85408
:10020000A854A854A8000000FF000000000000004F
:1002100000000000000000000000000000000000DE
:10022000000066666666666E7C000000000000FFE7
:10023000FF00000020715171000020715171000019
:1002400000000000000000000000000000000000AE
:100250000040A142A542A542A542A140000000AA3B
:1002600055AA55AA55AA55AA55AA55AA55AA55AA96
:1002700055AA55AA55AA55AA55AA000000002A5504
:100280002A552A552A000000FF0000000000000047
:10029000000000000000000000000000000000005E
:1002A00000003E7666666666660000000000000F8D
:1002B0003F408000081C141C0000081C141C000097
:1002C000000000000000000000000000000000002E
:1002D00000A142A142A10201A241A241A00000E06E
:1002E000F130B1B0B1303130B1B0B1303130B1B046
:1002F000B1303130B1B0B13031E000000000000069
:100300000000000000000000FF00000000000000EE
:1003100000000000000000000000000000000000DD
:10032000C0CC001E0C0C0C0C1E00000000000000D5
:100330000000000102040808080808080808080866
:1003400008F8F800007884020101010102847800B5
:1003500000AA55AA55AA0000AA55AA55AA0000FF4E
:10036000FF00E3A2E3000000E3A2E3000000E3A239
:10037000E3000000E3A2E30000FF00007884020134
:100380000101010284780000FF000000000000006D
:10039000000000000000000000000000000000005D
:1003A0003F360606060606060F00000000000000A5
:1003B000000000000000000000000000000000003D
:1003C000000F1F1010101011121212121110101025
:1003D000101211121112101012111211121010110C
:1003E00013121212121212121212121212121212EC
:1003F00012121212121212121213101010101112E5
:1004000012121211101010101F0000000000000046
:1004100000000000000000000000000000000003D9
:10042000050911FF118905C300E000F000F8000084
:1004300000000000004428FF11AA44000000000052
:1004400000000000000000000000000000000000AC
:10045000000000000000000000000000000000009C
:10046000000000000000000000000000000000008C
:100470000000000000000000830138448292927462
:100480000183000000000000007C44FF017D7D7DB1
:10049000017D7D7D7D017D7D7D7D7D01FF000000F5
:1004A0000000000100010001000100010001000046
:1004B000000000000000000101000000000000003A
:1004C000000000000000000000000000000000002C
:1004D000000000000000000000000000000000001C
:1004E000000000000000000000000000000000000C
:1004F00000000000000000000101000000000000FA
:1005000001010000000000000000000101010101E4
:1005100001010101010101010101010101000000CE
:1005200000000000000000000000000000000000CB
:10053000000000000000000000003F3F0303F31331
:1005400011111111111101F111618101010181617B
:1005500011F1010101014141F10101010101C1213B
:100560001111111121C1010101014141F1010101EB
:10057000010101010101011111111111D333030313
:100580003F3F0000000000000000000000000000ED
:10059000000000000000000000000000000000005B
:1005A000000000000000000000000000000000004B
:1005B00000000000000000000000E0E000007F01FB
:1005C000010101010100007F000001061806010081
:1005D000007F0000000040407F40400000001F20DE
:1005E00040404040201F0000000040407F4040004D
:1005F000000000600000000040300C03000000001C
:10060000E0E000000000000000000000000000002A
:1006100000000000000000000000000000000000DA
:1006200000000000000000000000000000000000CA
:100630000000000000000000000007070606060694
:1006400004040484444444840404844444448404EA
:10065000040484C40404040484444444840404045A
:10066000040484444444840404040404844444444A
:1006700084040484444444840404040406060606F2
:10068000070700000000000000000000000000005C
:10069000000000000000000000000000000000005A
:1006A000000000000000000000000000000000004A
:1006B000000000000000000000000000000000003A
:1006C000000000101814121100000F1010100F007D
:1006D0000000101F10000000081012120D0000187A
:1006E00000000D1212120D00001800001018141254
:1006F000110000101814121100000000000000008A
:1007000000000000000000000000000000000000E9
:1007100000000000000000000000000000000000D9
:1007200000000000000000000000000000000000C9
:1007300000000000000000000000000000000000B9
:1007400000000000000000000000000000000000A9
:100750000000000000000000000080808080808099
:100760008080000000000000000000000000000089
:100770000000000000000000000000000000000079
:100780000000000000000000000000000000000069
:100790000000000000000000000000000000007FDA
:1007A000030C300C037F00003854545800007C04C4
:1007B000047800003C40407C000000000000000085
:1007C0000000000000000000000000000000000029
:1007D00000000000000000000000FFAAAAAA2808EC
:1007E00000FF00000000000000000000000000000A
:1007F00000000000000000000000000000000000F9
:10080000000000000000007F030C300C037F00009C
:10081000264949493200007F020408107F00AE20BB
:1008200000B0C8001040813FA1A6A83FA4D300D5C6
:10083000F0D922DA12DB208D14AF11241FBECFE5D0
:10084000D2E0DEBFCDBF10E0A0E6B0E0E4EEFCE019
:1008500002C005900D92AA36B107D9F720E0AAE6AA
:10086000B0E001C01D92A437B207E1F7C9D138C288
:10087000C7CBC29AC09AC098C2980895C298C0982F
:10088000C29AC09A089520E030E090E0AC01022EB8
:1008900001C0440F0A94EAF747FF02C0C09A01C0A2
:1008A000C098C29AC2982F5F3F4F2830310571F728
:1008B000C09AC29AC2980895DCDF88E7E4DF80E03E
:1008C000E2CFDCCFCF93DF931F92CDB7DEB7898322
:1008D000F3DF8981D8DF0F90DF91CF91CFCFC9DFD0
:1008E00088E7D1DF80E4CFCFC9CF1F93CF93DF93C9
:1008F000B89ABA9ACEE1D8E01C2F145EFE0184911A
:10090000E1DF21961C13FACFDF91CF911F9108955B
:100910001F93CF93DF931F92CDB7DEB7182F698354
:10092000CBDF698180EB860FAEDF812F82958F70E0
:100930008061A9DF812F8F70A6DF0F90DF91CF91AB
:100940001F919CCFEF92FF920F931F93CF93DF9352
:10095000E82EF62E042F122F60E080E0D9DFBFDFF3
:10096000C0E0D1E08E2D8FDF8F2D8DDF802F8BDFCC
:10097000812F89DF2197B1F7DF91CF911F910F91DF
:10098000FF90EF907BCF262F482FDCCF282F482FCA
:10099000682FD8CFEF92FF920F931F93CF93DF93DF
:1009A0001F92CDB7DEB789839ADF8981805290E0AC
:1009B00066E070E084D18C01E12CF12C9701200FCE
:1009C000311FE0916C00F0916D00E20FF31F8491F4
:1009D0005ADF8FEFE81AF80A86E0E816F10471F79B
:1009E0000F90DF91CF911F910F91FF90EF9046CF25
:1009F000CF93DF93EC018991882311F0CBDFFBCFFC
:100A0000DF91CF910895109273006EE670E0A3D04D
:100A100090E082599F4FECCF109273006EE670E029
:100A20009AD08EE690E0E4CFAF92BF92DF92EF9241
:100A3000FF920F931F93CF93DF93182F062F7A0106
:100A4000D12CF701ED0DF11DC081CC2309F440C07C
:100A5000C052193710F00F5F10E0602F812F58DF60
:100A60003EDFD0E084E0CC0FDD1F8A95E1F7A12CBA
:100A7000B12CC5018C0F9D1FE0916A00F0916B00B5
:100A8000E80FF91F8491FFDE8FEFA81AB80A88E0FB
:100A9000A816B10471F7F2DE61E0600F812F38DF34
:100AA0001EDF5E0188E0A80EB11C6096E0916A002E
:100AB000F0916B00EA0DFB1D8491E5DE8FEFA81A23
:100AC000B80AAC16BD0691F7D9DE185FD394B9CF3A
:100AD000DF91CF911F910F91FF90EF90DF90BF902A
:100AE000AF9008959F92AF92BF92CF92DF92EF9214
:100AF000FF920F931F93CF93DF93E82EF62E942E41
:100B0000C22E580110E0D12CFC14C8F46F2D8E2D8C
:100B1000FFDEE5DEC12FDD2D8E2D811B182F8C2FE2
:100B2000810F891538F4F501EC0FFD1F8491ABDEC0
:100B30002196F5CFA3DEF3941C2FDD2EE5CFDF91B8
:100B4000CF911F910F91FF90EF90DF90CF90BF90CA
:100B5000AF909F900895CF93DF93CDB7DEB72A97DC
:100B60000FB6F894DEBF0FBECDBFAC018AE0E0E661
:100B7000F0E0DE01119601900D928A95E1F7FE01F9
:100B80003196DB0120E084E06191719190E046179D
:100B9000570720F09F5F461B570BF9CF843039F47D
:100BA000911104C0243011F090EF01C0822F905DAC
:100BB0009D932F5F253041F72A960FB6F894DEBF3C
:100BC0000FBECDBFDF91CF910895FC0120E08FE0F3
:100BD00040E050E8E417F50730F0E41BF50B8F30E8
:100BE00021F4822F02C090E001C091E0905DDB0112
:100BF0009D93BD01569547952F5F203159F7089574
:100C0000F89480E886BD16BC78942FEF89EF90E0C9
:100C1000215080409040E1F700C0000066DE80E097
:100C2000B5DE2FEF81EE94E0215080409040E1F757
:100C300000C000000EE114E028E040E860E080E041
:100C400051DF2FEF83ED90E3215080409040E1F79A
:100C500000C000002FEF83ED90E3215080409040D2
:100C6000E1F700C000000EE110E028E040E860E09D
:100C700080E038DF2FEF83ED90E3215080409040FB
:100C8000E1F700C000002FEF83ED90E3215080409A
:100C90009040E1F700C000002FEF83ED90E321507A
:100CA00080409040E1F700C000002FEF83ED90E31B
:100CB000215080409040E1F700C00000B0CF0024F8
:100CC000552704C0080E591F880F991F009729F057
:100CD00076956795B8F37105B9F7802D952F08952E
:040CE000F894FFCFB6
:0A0CE4001027E80364000A00010075
:00000001FF
